:100000000C94DD010C9405020C9405020C94391D2E
:100010000C94391D0C94391D0C9405020C940502A6
:100020000C9405020C9405020C9405020C94050234
:100030000C9405020C9405020C9405020C94050224
:100040000C94971C0C9405020C94071D0C94E11C55
:100050000C9405020C9405020C9405020C94050204
:100060000C94B11D0C940502AED580A83FD300407E
:100070008D142002A1C8DA12817FD9F1DB40A4A639
:10008000AFCDCCCC3D0AD7233C17B7D13877CC2B9A
:10009000329595E6241FB14F0A000020410000C8A8
:1000A0004200401C4620BCBE4CCA1B0E5AAEC59D29
:1000B0007400030C0F30333C3FC0C3CCCFF0F3FCD3
:1000C000FF536F6C617200536D6172740000000524
:1000D000072060000000000000005F000000070033
:1000E0000700147F147F14242A7F2A122313086424
:1000F0006236495620500008070300001C224100C8
:100100000041221C002A1C7F1C2A08083E08080007
:1001100080703000080808080800006060002010A7
:100120000804023E5149453E00427F400072494961
:1001300049462141494D331814127F102745454542
:10014000393C4A4949314121110907364949493663
:10015000464949291E0000140000004034000000F8
:10016000081422411414141414004122140802012A
:100170005909063E415D594E7C1211127C7F494956
:1001800049363E414141227F4141413E7F494949F3
:10019000417F090909013E414151737F0808087FE9
:1001A00000417F41002040413F017F081422417FF0
:1001B000404040407F021C027F7F0408107F3E4188
:1001C00041413E7F090909063E4151215E7F0919DF
:1001D0002946264949493203017F01033F404040F7
:1001E0003F1F2040201F3F4038403F6314081463E6
:1001F00003047804036159494D43007F41414102A2
:1002000004081020004141417F04020102044040E3
:10021000404040000307080020545478407F2844A1
:1002200044383844444428384444287F385454548B
:100230001800087E090218A4A49C787F080404789A
:1002400000447D40002040403D007F1028440000D5
:10025000417F40007C047804787C080404783844AA
:10026000444438FC1824241818242418FC7C08045E
:100270000408485454542404043F44243C4040207F
:100280007C1C2040201C3C4030403C44281028442A
:100290004C9090907C4464544C44000836410000DB
:1002A00000770000004136080002010204023C26EB
:1002B00023263C6800198040004F4C454420666F5F
:1002C000756E6421004F4C4544204E4F5420666F9C
:1002D000756E6421004661696C656420746F2072DC
:1002E0006561642044485421002D2D2D2D2D2D2D88
:1002F0002D2D2D2D2D2D2D2D2D2D2D2D2D2D2D2D2E
:100300002D2D2D2D2D2D2D2D2D004E756D3A2000CE
:10031000537461747573743A20002D2D2D2052652D
:10032000636569766564205061636B6574206672ED
:100330006F6D20455350202D2D2D004C75783A209F
:1003400000570056202020004261743A20005700D8
:100350005620202000536F6C3A200000000000243B
:100360000027002A0000000008000201000003042A
:10037000070000000000000000000000002300262D
:1003800000290000000000250028002B00040404C0
:10039000040404040402020202020203030303032E
:1003A000030102040810204080010204081020010B
:1003B000020408102000D01EED2B11241FBECFEF29
:1003C000D8E0DEBFCDBF25E0A8EBB2E001C01D92B2
:1003D000AC32B207E1F712E0A0E0B1E0E2E9F1E609
:1003E00002C005900D92A83BB107D9F711E0CCED02
:1003F000D1E004C02197FE010E94A02DCB3DD10782
:10040000C9F70E9468200C94BC300C940000089539
:100410000895CF92DF92EF92FF92CF93DF93B09146
:10042000B704A0E08111AB2F8091B80490E0880F51
:10043000991FAC0147585C4FC090BD04D090BE04DA
:10044000E090BF04F090C00430E020E0FA01C591D4
:10045000D491E881B90190E080E0EB23EA130AC06F
:100460002F5F3F4F6C157D058E059F0578F36FEF6D
:100470007FEFCB01DF91CF91FF90EF90DF90CF9096
:1004800008958230910538F0880F991F880F991FC1
:1004900005970197F1F70895BF92CF92DF92EF92FF
:1004A000FF920F931F93CF93DF93EC018881998183
:1004B000892B81F06EBD0DB407FEFDCF0EB5802FE8
:1004C000DF91CF911F910F91FF90EF90DF90CF9030
:1004D000BF9008958885998511E0892B09F010E86F
:1004E000BB24B394862F812309F0B12CF62E2C81E6
:1004F0003D814E815F8160E271EA87E090E00E9479
:100500007E2DE22E00E0C22ED12CEE2019F0C60185
:100510000E9441028A85982F977F09F044C08D85FB
:100520008F3F89F09F2D912381E009F480E08B15A6
:1005300051F0EF85F8898F89992379F19081892B82
:100540008083BB24B394E989FA898081998D892BB2
:100550008083EE2019F0C6010E9441028E858F3FF4
:1005600039F0EB89FC898081988D892309F0012B72
:10057000E989FA899081898D80958923808388858E
:100580009985892B09F067C0110F1111BECF8E8597
:100590008F3F09F094CF0F2D92CF908180958923C2
:1005A0008083B12CD0CF8C3099F58D858F3F49F069
:1005B000EF85F8898F899F2D912331F19081892BC7
:1005C0008083E989FA899081898D80958923808348
:1005D000EE2019F0C6010E944102E989FA89808162
:1005E000998D892B8083EE2019F0C6010E9441026B
:1005F0008E858F3F21F2EB89FC898081988D89233C
:1006000009F4BDCF012BBBCF908180958923D8CF32
:10061000E989FA898081998D892B8083EE2019F0F0
:10062000C6010E9441028D858F3F49F0EF85F88910
:100630008F899F2D912359F09081892B8083E9899F
:10064000FA899081898D809589238083D1CF90818B
:1006500080958923F3CF169598CF90E0FC01EB5954
:10066000FC4F2491FC01EF55FC4F3491FC01E35702
:10067000FC4FE491EE23C9F0222339F0233001F13D
:10068000A8F4213019F1223029F1F0E0EE0FFF1F1C
:10069000ED57FC4FA591B4918FB7F894EC9161118F
:1006A00026C030953E233C938FBF08952730A9F094
:1006B0002830C9F0243049F7809180008F7D03C035
:1006C000809180008F7780938000DFCF84B58F7713
:1006D00084BDDBCF84B58F7DFBCF8091B0008F7759
:1006E0008093B000D2CF8091B0008F7DF9CF3E2BA8
:1006F000DACFFC0180819181892B39F0A281B3810D
:100700009C9111968C919CBD8DBD83858F3F19F076
:1007100060E00C942D030895FC0183858F3F19F050
:1007200061E00C942D0308958F929F92AF92BF9237
:10073000CF92DF92EF92FF920F931F93CF93DF93AD
:100740007C014B016A01B22EA32E0E947903E401C1
:10075000C80CD91CCC15DD0569F4CB2DDA2D0C0F96
:100760001D1FC017D10759F06FEFC7010E944C023F
:100770008993F7CF6991C7010E944C02EBCFC70163
:100780000E948C0381E0DF91CF911F910F91FF9028
:10079000EF90DF90CF90BF90AF909F908F90089593
:1007A0008F929F92AF92BF92CF92DF92EF92FF9281
:1007B0000F931F93CF93DF937C01B62EA72E6A0170
:1007C00049010E947903E401080D191DC017D107E2
:1007D00061F4CB2DDA2DCC0EDD1ECC15DD0551F0EC
:1007E0006991C7010E944C02F8CF6991C7010E942C
:1007F0004C02ECCFC7010E948C0381E0DF91CF91C6
:100800001F910F91FF90EF90DF90CF90BF90AF902E
:100810009F908F900895CF93DF9390E0FC01EF5568
:10082000FC4F249183579C4FFC0184918823C9F08D
:1008300090E0880F991FFC01E55AFC4FA591B491F7
:10084000FC01ED57FC4FC591D49161110DC09FB7CC
:10085000F8948C91209582238C9388812823288377
:100860009FBFDF91CF910895623051F49FB7F89404
:100870003C91822F809583238C93E8812E2BEFCFA0
:100880008FB7F894EC912E2B2C938FBFEACF8E303C
:1008900008F08E508770806480937C0080917A008D
:1008A000806480937A0080917A0086FDFCCF8091ED
:1008B00078009091790008953FB7F894809159039A
:1008C00090915A03A0915B03B0915C0326B5A89B5D
:1008D00005C02F3F19F00196A11DB11D3FBFBA2FD2
:1008E000A92F982F8827BC01CD01620F711D811D92
:1008F000911D42E0660F771F881F991F4A95D1F717
:1009000008958F929F92AF92BF92CF92DF92EF9213
:10091000FF926B017C010E945C044B015C01C114DD
:10092000D104E104F104B9F00E945C04681979096A
:100930008A099B09683E73408105910580F321E097
:10094000C21AD108E108F10888EE880E83E0981EEB
:10095000A11CB11CE4CFFF90EF90DF90CF90BF902F
:10096000AF909F908F9008952FB7F89460915503A2
:100970007091560380915703909158032FBF0895AB
:10098000CF92DF92EF92FF920F931F93CF93DF935B
:10099000CDB7DEB7C054D1400FB6F894DEBF0FBE5E
:1009A000CDBF0E94B4040091B9041091BA04209103
:1009B000BB043091BC046B017C01C01AD10AE20A6D
:1009C000F30A97018601003D17402105310590F497
:1009D0008091C104C05CDE4F0FB6F894DEBF0FBE3D
:1009E000CDBFDF91CF911F910F91FF90EF90DF90DE
:1009F000CF9008956093B9047093BA048093BB04B8
:100A00009093BC041092B4041092B3041092B204F8
:100A10001092B1041092B00462E08091B5040E947B
:100A20000B0461E070E080E090E00E94810461E0EE
:100A30008091B5040E940B0460E08091B5040E948F
:100A40002D038091B60485518230E0F48BE291E170
:100A50000197F1F762E08091B5040E940B04809148
:100A6000C20490E00E944102F89480E00E940902D2
:100A70006F3F7F4F8F4F9F4F61F41092C104789466
:100A800080E0A8CF64E170E080E090E00E94810403
:100A9000E1CF81E00E9409026F3F7F4F8F4F9F4F50
:100AA00061F38E010F5F1F4F6E012FEBC21A2EEF05
:100AB000D20A780180E00E940902F7016083718305
:100AC0008283938381E00E940902F7016483758326
:100AD00086839783F8E0EF0EF11CEC14FD0451F7C8
:100AE000789430E020E0F801C080D180E280F3808B
:100AF0004481558166817781FFEFCF16DF06EF06CF
:100B0000FF0631F04F3F8FEF58076807780719F459
:100B10001092C104B5CFF90183E0F595E7958A9568
:100B2000E1F7E055FB4F8081880FC416D506E60635
:100B3000F70610F180832F5F3F4F085F1F4F283269
:100B4000310589F64091B4042091B0048091B1043C
:100B5000280F3327331F8091B204280F311D809155
:100B6000B304820F932F911D99274817190681F618
:100B700081E08093C1042ECF8160DCCFEF92FF92A1
:100B80000F931F93CF93DF938C017B01D0E0C0E0E4
:100B9000F701EC0FFD1F6491662361F0D801ED9120
:100BA000FC910190F081E02DC8010995892B11F08D
:100BB0002196EECFCE01DF91CF911F910F91FF9043
:100BC000EF900895AF92BF92CF92DF92EF92FF9293
:100BD0000F931F93CF93DF936C017B018B01040F65
:100BE000151FEB015E01AE18BF08C017D10759F001
:100BF0006991D601ED91FC910190F081E02DC60143
:100C00000995892B79F7C501DF91CF911F910F913C
:100C1000FF90EF90DF90CF90BF90AF900895FC01D0
:100C2000538D448D252F30E0842F90E0821B930B51
:100C3000541710F0CF96089501970895FC01918DF7
:100C4000828D981761F0A28DAE0FBF2FB11D5D96FA
:100C50008C91928D9F5F9F73928F90E008958FEF9C
:100C60009FEF0895FC01918D828D981731F0828D50
:100C7000E80FF11D858D90E008958FEF9FEF0895A7
:100C8000FC01918D228D892F90E0805C9F4F821B0B
:100C900091098F739927089583ED93E00E94400690
:100CA00021E0892B09F420E0822F089580E090E074
:100CB000892B29F00E944C0681110C9400000895A4
:100CC000FC01A48DA80FB92FB11DA35ABF4F2C91C1
:100CD000848D90E001968F739927848FA689B789B8
:100CE0002C93A089B1898C91837080648C93938DAF
:100CF000848D981306C00288F389E02D80818F7D52
:100D000080830895EF92FF920F931F93CF93DF9309
:100D1000EC0181E0888F9B8D8C8D98131AC0E88937
:100D2000F989808185FF15C09FB7F894EE89FF8906
:100D30006083E889F98980818370806480839FBFA4
:100D400081E090E0DF91CF911F910F91FF90EF90A4
:100D50000895F62E0B8D10E00F5F1F4F0F731127B4
:100D6000E02E8C8D8E110CC00FB607FCFACFE889EF
:100D7000F989808185FFF5CFCE010E946006F1CF11
:100D8000EB8DEC0FFD2FF11DE35AFF4FF0829FB763
:100D9000F8940B8FEA89FB8980818062CFCFCF9353
:100DA000DF93EC01888D8823B9F0AA89BB89E88993
:100DB000F9898C9185FD03C0808186FD0DC00FB639
:100DC00007FCF7CF8C9185FFF2CF808185FFEDCFB7
:100DD000CE010E946006E9CFDF91CF910895209166
:100DE0003E0330913F032817390771F490913C037B
:100DF00080913D03981741F0E0913C03F0E0E4500E
:100E0000FD4F808190E008958FEF9FEF0895089542
:100E1000EF92FF920F931F93CF93DF93DC015C96C9
:100E2000ED90FC905D97E114F10479F481E090E09D
:100E300013969C938E93129790E080E0DF91CF9170
:100E40001F910F91FF90EF9008955196ED91FC91B5
:100E5000529750968C915097982F90950FB75E9619
:100E60002C915E97122F127021FD6095F8942081CD
:100E7000112319F1282B2083E7012197F1F728E0AE
:100E8000462F50E0308160FF1AC0382B3083E701D5
:100E90002197F1F7BA0175956795215089F71123CC
:100EA00081F08081892380830FBF5C968D919C9116
:100EB0000197F1F781E090E0C1CF2923DCCF3923FE
:100EC000E5CF9081892BEFCF20913E0330913F03F6
:100ED0002817390761F480913D0320913C0390E08D
:100EE000805C9F4F821B91098F739927089590E032
:100EF00080E0089520913E0330913F032817390781
:100F0000B9F490913C0380913D03981789F0E091EA
:100F10003C03F0E0E450FD4F808120913C0330E041
:100F20002F5F3F4F2F73332720933C0390E00895AA
:100F30008FEF9FEF08950F931F930E94B404609367
:100F4000990470939A0480939B0490939C0481E984
:100F500094E00E947A0797FF1DC00E94B40400919C
:100F6000990410919A0420919B0430919C04601B79
:100F7000710B820B930B00919504109196042091B4
:100F80009704309198046017710782079307F8F26D
:100F90008FEF9FEF1F910F910895CF93DF93EC0197
:100FA0008D85882329F081508D87DF91CF91089519
:100FB0009C818E819817C8F788896827E881F98114
:100FC0000084F185E02D42E0CE0109958C818F5F90
:100FD0008C83EBCFDC01ED91FC910084F185E02D59
:100FE00040E009940F931F93CF938C01FC0164831D
:100FF000C085C60F6C2F6F700E94EA076C2F629538
:101000006F706061C801CF911F910F910C94EA0736
:10101000FC012781269526952695621738F465836D
:101020002385620F6770606B0C94EA0708951F9325
:10103000CF93DF93EC01142F8E81681718F4CE0143
:101040000E94F207612FCE01DF91CF911F910C9486
:101050000808CF92DF92EF92FF920F931F93CF93E6
:10106000DF93EC01F62EC42ED22E1D868F8186953D
:1010700086958695081710F00FEF080F1D2D0117A4
:1010800080F0412F6F2DCE010E941708EF2CCE1457
:1010900030F06889CE010E94CD07E394F8CF1F5F3E
:1010A000EECF4D2D6F2DCE01DF91CF911F910F917E
:1010B000FF90EF90DF90CF900C9417080F93CF9391
:1010C000DF93CCE7D4E01B861A8660E4CE010E9451
:1010D000EA070F8106950695069501504E8141500D
:1010E00020E060E0CE010E942908DF91CF910F91AE
:1010F00008952F923F924F925F926F927F928F92BC
:101100009F92AF92BF92CF92DF92EF92FF920F9396
:101110001F93CF93DF9300D000D000D01F92CDB7A4
:10112000DEB79F838E83DC011E968D919C91009784
:1011300009F47EC1FC013296549031962491E22E3E
:10114000F12CB7E0EB0EF11C43E0F594E7944A95DF
:10115000E1F7E98231963491319644916D3031F561
:10116000EE81FF81868181111BC081E090E027968E
:101170000FB6F894DEBF0FBECDBFDF91CF911F91A8
:101180000F91FF90EF90DF90CF90BF90AF909F9026
:101190008F907F906F905F904F903F902F90089529
:1011A00060E08E819F810E94F207DFCF6A3009F0F4
:1011B00067C0AE81BF8116968C911697882321F067
:1011C00060E0CD010E94F207EE81FF8101890E9D52
:1011D000E02C112465816E0D8485882349F02781D8
:1011E0002695269526958E2D821B860F18162CF097
:1011F0008E819F810E940808B8CFAE81BF811B9667
:101200009C911B97890F87701B968C931B972E19A7
:1012100015962C9315971E96ED91FC91309771F1D0
:101220003396E491F0E0379633E0F595E7953A95FB
:10123000E1F70E9F002D1124EFEFE20F0E0FEE816C
:10124000FF81468141506481CF010E942908AE810F
:10125000BF811C968C911C97813009F086CF1B961C
:101260006C911B97660F660F660F6F731A966C93DF
:101270001A976064CD010E94EA0777CF00E0DCCFC7
:10128000631760F1A32FA40FBB27BB1F6A171B06B0
:101290002CF5631B212C8C010A5F1F4FEE81FF810F
:1012A00051853189539F302D11243D83211014C065
:1012B000FC0134910196FC018491932F0297A0F4D4
:1012C0005E9C90015F9C300D1124629FC001639F62
:1012D000900D1124080F191F612C28C0603209F0ED
:1012E000A7C022242394D7CF277088E0682E621AE3
:1012F000211101C0612CF80120E090E080E062172C
:1013000031F03491830F911D2F5F3196F8CFF801A2
:10131000E60FF11D5490E89EF001E99EF00DF89E55
:10132000F00D1124E40FF11D0E0F1F1FAE81BF81C0
:101330001496BC91BA83EE81FF81F581FB83AE8167
:10134000BF811D96BC91BC83852C912CAA24A394AB
:10135000B12C312CE9813E1608F068C0412CAE81D9
:10136000BF8151968C915197481608F058C0EC8176
:101370001D96EC93311002C0442051F0AE81BF8124
:1013800015964C9115974F5F6A81CD010E94170801
:10139000D12CC12CC514B0F5712C211004C0F8015A
:1013A000EC0DFD1D7490662061F0EA14FB0449F415
:1013B000E72DF0E0062C02C0F595E7950A94E2F7D8
:1013C0007E2EEE81FF818189823079F44420B1F054
:1013D00072948FE07822E72DF0E0EF54FF4F749085
:1013E000672D8E819F810E94CD07672D8E819F8101
:1013F0000E94CD073FEFC31AD30ACCCFF72DFF7061
:101400007F2EE9CFD12C8D81D81639F060E08E8106
:101410009F810E94CD07D394F6CF4394A0CF3394FD
:10142000AFEFAA1ABA0A080D191D94CF6B81E0CE4E
:1014300090E080E09CCE2091D902260F3327331F05
:1014400021323105ECF42091A903FC0190E080E009
:10145000243069F082E00895A091D9022191AC0175
:1014600047545D4FA40FB52FB11D2C9301968617DD
:1014700098F38091D902680F6093D90280E00895B3
:1014800081E008951092A90381E08093A80310924F
:10149000830361E082E10E942D0361E083E10E9409
:1014A0002D03E9EBF0E080818E7F808380818D7F4A
:1014B000808388E48093B80085E48093BC0008951D
:1014C00010928203109281031092B0031092D20303
:1014D0000E94420A87E092E09093800380937F030A
:1014E00088E092E090937E0380937D030895CF93EC
:1014F000DF9391E09093B8028823B9F0C091B800CF
:10150000D091BA008091BC008A7B8093BC0060E0DF
:1015100082E10E942D0360E083E10E942D030E947E
:10152000420AD093BA00C093B800DF91CF910895DA
:101530008F929F92AF92BF92CF92DF92EF92FF92E3
:101540000F931F93CF93DF93D091D203D13208F042
:10155000D7C0182FC091D1030E945C046B017C019D
:101560008091A90381116BC082E08093A90310933D
:10157000A8038FEF8093A7031092A603D093A5032F
:10158000A1EBB3E0E5E8F3E080E0D81391C010925E
:10159000840380918403CC0FC82BC0938403809173
:1015A0008303813009F088C0109283030E945C0499
:1015B0006B017C01809184038093BB008091AB031D
:1015C0009091AC03A091AD03B091AE03892B8A2B0F
:1015D0008B2BA1F00E945C040091AB031091AC0333
:1015E0002091AD033091AE036C197D098E099F09DE
:1015F000061717072807390708F442C08091BC0076
:1016000083FDD8CF85EC8093BC000E945C046B0105
:101610007C018091A903823009F450C08091A70316
:101620008F3F09F46FC08091A703803209F46CC02A
:101630008091A703803309F469C084E026C08091BB
:10164000AB039091AC03A091AD03B091AE03892B95
:101650008A2B8B2B09F484CF0E945C048090AB030F
:101660009090AC03A090AD03B090AE036C197D09CF
:101670008E099F0986169706A806B90608F070CF4E
:101680008091AA030E94770A85E01092B00310921D
:10169000D2031092AF03DF91CF911F910F91FF9072
:1016A000EF90DF90CF90BF90AF909F908F90089574
:1016B0009D9191938F5F69CF85EEA5CF8091AB030C
:1016C0009091AC03A091AD03B091AE03892B8A2B0E
:1016D0008B2B09F49ECF0E945C040091AB03109108
:1016E000AC032091AD033091AE036C197D098E09D6
:1016F0009F09061717072807390708F08ACFC0CFB8
:1017000081E0C3CF80E0C1CF82E0BFCF83E0BDCF17
:101710001F93CF93DF93EA01122FDC0111968D9175
:101720009C91DC01ED91FC910280F381E02D099503
:10173000C817D90729F4812F0E94980A91E08111D6
:1017400090E0892FDF91CF911F910895CF93DF9380
:10175000EC018B818823A1F0888191E09093AF0305
:101760008093D1031092B0031092D20381E00E94C3
:10177000980A91E0811190E0892FDF91CF9108952F
:101780000E94600A81E08B83CE010E94A60B982FF5
:101790008111E2CFF1CFE091820380918103E817BC
:1017A00030F4F0E0E35AFC4F808190E008958FEF31
:1017B0009FEF089590918203809181032FEF3FEF77
:1017C000981748F4E92FF0E0E35AFC4F208130E00D
:1017D0009F5F90938203C901089580918103909146
:1017E0008203891B990B0895CF92DF92EF92FF92AB
:1017F0000F931F93CF93DF937C01CB018A0120913C
:10180000AF03222389F0EB016B01C40ED51ECC156A
:10181000DD0569F06991D701ED91FC910190F081AE
:10182000E02DC7010995F3CF642F0E941B0AC80160
:10183000DF91CF911F910F91FF90EF90DF90CF90AC
:101840000895CF93DF931F92CDB7DEB769832091C0
:10185000AF032223F9F02091D203203258F021E087
:1018600030E0FC013383228390E080E00F90DF9131
:10187000CF9108958091B003E82FF0E0EF54FC4F32
:10188000998190838F5F8093B0038093D20381E02E
:1018900090E0ECCF61E0CE0101960E941B0AF7CFE9
:1018A0006F3FA9F0E62FE295EF7044E0E49F9001CE
:1018B0001124DC01ED91FC91E20FF31F6F70828126
:1018C0009381B6E06B9F800D911D1124089590E0E7
:1018D00080E00895982F80336CF08A3324F08F35A0
:1018E00024F08B3724F481E0089581341CF081E0EA
:1018F0009B350CF080E00895FC018485811114C0B3
:10190000A781B085818592852FEF3FEFA817B90792
:1019100030F4CD010196908787832C9130E037FD1C
:1019200020E0238781E08487838508951F93CF93E8
:10193000DF93EC01162F0E947C0C811306C01C86DD
:1019400081E0DF91CF911F91089580E0FACF0F934E
:101950001F93CF93DF938C01EB018991882369F06A
:10196000C8010E947C0C882379F0FE013197908198
:1019700098130DC0F8011486F0CF90E080E0DF915D
:10198000CF911F910F91089582E090E0F8CF83E00E
:1019900090E0F5CFCF93DF93EC01CE010E947C0C59
:1019A0008B304CF489305CF4882359F081E08E83CD
:1019B00090E080E00BC08D3011F08032B9F71C86CA
:1019C000ECCF8E81811105C081E090E0DF91CF9155
:1019D000089582E090E0FACFCF93DF93DB01FC0122
:1019E000808191810097E1F012962C9112971396C5
:1019F0004C911397342F3F77FC0143814217130614
:101A000071F7ED91FC911197EC0124962E0F3F1F79
:101A1000E217F30729F0519149915417C9F3DFCF29
:101A2000DF91CF910895DC0152969C91529791508D
:101A300084E0989F900111245096ED91FC91E20F63
:101A4000F31F228133812115310579F04181808195
:101A5000481758F481E0840F818386E0489F200D69
:101A6000311D11242115310521F460E070E08FEF64
:101A70000895B901892F8295807F840F0895DF92A0
:101A8000EF92FF920F931F93CF93DF93EC017B01B3
:101A9000D12C688979898A89D816E0F484E0D89EA7
:101AA00080011124060F171FD80112966D917C91A9
:101AB0006115710541F0D701ED91FC910280F38130
:101AC000E02DC7010995F80113821282108211825C
:101AD000D394DFCF1A8A8FEF8C8BC617D70761F0AC
:101AE000D701ED91FC910280F381E02DC7010995AA
:101AF000D98BC88B84E08B8BDF91CF911F910F9195
:101B0000FF90EF90DF9008954F925F926F927F92D7
:101B10008F929F92AF92BF92CF92DF92EF92FF92FD
:101B20000F931F93CF93DF9300D000D01F92CDB7B8
:101B3000DEB7DC012C912B32E1F12D32D9F5019683
:101B4000EE24E394FC01208130ED320F3A3010F0A6
:101B50002E3291F58C0160E070E0CB01F80121910B
:101B600030ED832E820E39E0381508F444C06A390E
:101B700049E97407840749E1940708F046C0AAE0E0
:101B8000B0E09B01AC010E942D2D912CB12CA12C19
:101B90002401350140945094609470944616570681
:101BA0006806790690F1680D791D8A1D9B1D8F01CD
:101BB000D5CF0196E12CC6CF198229813A814B817C
:101BC0005C816D8170E080E090E00F900F900F904D
:101BD0000F900F90DF91CF911F910F91FF90EF9099
:101BE000DF90CF90BF90AF909F908F907F906F903D
:101BF0005F904F900895211108C0EE2051F161309F
:101C00007105810550E89507A0F0F12CBAE08B2E04
:101C1000912CA12CB12C6115710530E88307910539
:101C2000F8F0A50194010E947E2DCA01B901F39438
:101C3000F2CF22E029839B01AC0188279927DC01A0
:101C4000821B930BA40BB50B8A839B83AC83BD8350
:101C5000B4CF23E029836A837B838C839D83ADCFBC
:101C6000F801D8012D918D0130ED320F3A3010F48A
:101C7000F394F6CF2E3201F58F010F5F1F4FF8015D
:101C80000F5F1F4F2081A0EDDA2ED20EB9E0BD15F7
:101C900098F06C3CECEC7E07ECE08E07910578F751
:101CA000AAE0B0E09B01AC010E942D2D6D0D711DCD
:101CB000811D911DFA94E3CF20812F7D10E000E07B
:101CC000253409F050C021812D32B1F53296CC2453
:101CD000C394DF0110E000E02F2D0F2C000C330B1C
:101CE000EAE0BE2EFD01DD9040ED4D0D4A30B0F52D
:101CF000B09EA001B19E500D11240D2DDD0C110BD5
:101D000000531109040F151FA801420F531F47323A
:101D1000510544F3CC20B9F080E090E0A0E0B0E8B9
:101D2000E11003C080E090E0DC0121E029838A8398
:101D30009B83AC83BD8341CF2B3219F03196C12CEC
:101D4000C8CF3296FCCF80E090E0A0E8BFEFE11072
:101D5000ECCF80E090E0A0E8BFE7E7CFCC2019F01F
:101D60001195019511092081211126CF0F0D111D0B
:101D7000F7FC1A950E940E2C49E9A42E40E0B42EDF
:101D8000101611063CF011950195110951E8A52E88
:101D900050E0B52ED12CC12C01151105E9F0F6E06B
:101DA000CF16D104A9F000FF0DC0F601EE0FFF1F02
:101DB000EE0FFF1FEA0DFB1D2591359145915491C2
:101DC0000E946F2C159507952FEFC21AD20AE4CF07
:101DD00060E070E080EC9FE7E110905821E02983FB
:101DE0006A837B838C839D83E8CECF92DF92EF92D0
:101DF000FF920F931F93CF93DF937C016B018A01B6
:101E0000FC01C081D1814F3F510509F0B0F4E88158
:101E1000F9810480F581E02D4B5F5F4FCE0109957C
:101E2000009759F0FC010383DF91CF911F910F912F
:101E3000FF90EF90DF90CF900895E881F9810280C4
:101E4000F381E02DB601CE01099581E0F70182838F
:101E500090E080E0E9CF1F93CF93DF93EC01162F42
:101E60006A817B816115710589F04C815D81FB017F
:101E700083818417150651F4440F551F4F5F5F4F40
:101E8000888199810E94F50E9B838A838A819B8138
:101E9000009759F02C813D81A9014F5F5F4F5D8311
:101EA0004C83820F931FFC011483DF91CF911F910C
:101EB00008959F92AF92BF92CF92DF92EF92FF92DE
:101EC0000F931F93CF93DF9300D000D01F92CDB715
:101ED000DEB78C010E947C0CD82EF8011486F12C00
:101EE000E12C60EFC62EC8010E947C0CF80114861C
:101EF000D81609F4B3C0811113C082E090E00F90AE
:101F00000F900F900F900F90DF91CF911F910F9135
:101F1000FF90EF90DF90CF90BF90AF909F9008958B
:101F20008C3509F099C0C8010E947C0C882329F3E4
:101F3000EAE8F1E0853709F083C0F801148654E03F
:101F4000952EB12CA12CC8010E947C0C8823A9F2EB
:101F5000813434F48053803130F083E090E0CFCF8F
:101F60008F7D8753F8CF44E0AA0CBB1C4A95E1F75C
:101F7000A82AF80114869A949110E5CFC501985DBE
:101F80008115944020F47501F3E0FF22ACCFC50128
:101F90009C5D81159440A8F483E0B822B701762FA8
:101FA0006627770F770F6A297B2990E080E00196FA
:101FB000603871058105910540F4C8010E942B0F1E
:101FC00092CFB50190E080E0F3CF1982262F2F73D6
:101FD00020682A8326E096958795779567952A95B8
:101FE000D1F76032710580F4606C6B835E01E4E0D0
:101FF000AE0EB11CF50162915F01662309F473CF47
:10200000C8010E942B0FF6CF262F2F7320682B8339
:1020100086E0769567958A95E1F76031710538F429
:10202000606E6C835E01F5E0AF0EB11CE3CF6068BB
:102030006C83CD825E0126E0A20EB11CDBCF32960E
:102040009081992309F489CF8913F9CF818188235D
:1020500009F483CFF8011486682FAFCF8281938172
:10206000892B19F484E090E04ACF90E080E047CFDC
:10207000AF92BF92CF92DF92EF92FF920F931F9396
:10208000CF93DF9300D000D0CDB7DEB7DC0112963E
:102090002D913C9113972C5F3F4F14964D915C917D
:1020A0004430510580F57901D901E0E0142F022F69
:1020B000FA2FF21BF11730F4DD90F1E0D110F0E0CF
:1020C000EF2BF6CFE1111FC082E0FB0184838E2D40
:1020D000801B811728F4D7018D917D018193F7CF63
:1020E000640F751FFB0110820F900F900F900F90DF
:1020F000DF91CF911F910F91FF90EF90DF90CF90E4
:10210000BF90AF9008957B018C01420F531FDA01FD
:102110001C92FC01C080D180A480B5803A832983C1
:10212000AB828B2D8F778C83BE016F5F7F4FC60193
:1021300003960E94EC0C0097D9F4D80112966D9189
:102140007C91A501C6010E94F50ED801ED91FC918C
:1021500023813481DC012D933C9394838383F801A4
:102160001382128225E0F701248391838083BCCF00
:10217000DC0112962C9112972F5F12962C93F2CFBE
:10218000DB01ED91FC9111970280F381E02DBC0100
:10219000CD010994AF92BF92CF92DF92EF92FF925E
:1021A0000F931F93CF93DF93EC018B018C8180FF02
:1021B00024C0A881B981FB018381948130E020E0B3
:1021C0000097D9F0A817B907D1F5F801608171819E
:1021D00012968C911297815012968C9312978111BE
:1021E0000CC08D919C9111972115310529F1F901B0
:1021F00091838083CD010E94C0108C81807631F163
:10220000209721F1F8805801F5E1AF0EB11C8FEF56
:10221000F816D1F06F2DC5010E94500C6C01FC0125
:10222000E580B8010E94CA10F801818DF601808313
:10223000F801F18EFE2CEBCF94838383DBCF9C01DE
:10224000FC0180819181BCCFF882F9821C82DF91F0
:10225000CF911F910F91FF90EF90DF90CF90BF90A3
:10226000AF9008950F931F93CF93DF93EC010881F4
:1022700019818B819C81009749F0FC01208131817B
:102280003C832B83B8010E94C010F3CF6881798111
:10229000CE010596DF91CF911F910F910C943F0DC8
:1022A000CF93DF93EC01CB01CF3FD10509F0B0F420
:1022B000BE016B5F7F4F6C177D0780F0DC01ED91F5
:1022C000FC910190F081E02D0995009721F0FC012F
:1022D000C38321E02283DF91CF91089590E080E0D5
:1022E000FACF0F931F93CF93DF93EC01062F142F98
:1022F0008B89813120F4882331F0411104C081E0C1
:102300000E94980A1B8A8B89811112C08A8991E0E8
:102310009093AF038093D1031092B0031092D20335
:1023200060E4111101C060E080E794E00E94210C9C
:10233000602F80E794E00E94210C123041F48B89D9
:102340008F5F8B8BDF91CF911F910F91089581E06B
:102350000E94980A1B8AF6CF089590E080E00895C5
:102360002F923F924F925F926F927F928F929F92A5
:10237000AF92BF92CF92DF92EF92FF920F931F9393
:10238000CF93DF9300D000D01F92CDB7DEB77C0192
:10239000DC011A960C914C01BDE08B0E911CFC01E6
:1023A0009085818599838A8320803180211431042E
:1023B00009F424C1438550E0D10114968D919C917C
:1023C00015978417950708F48CC18C9191E0909330
:1023D000AF038093D1031092B0031092D20320E098
:1023E000BE016F5F7F4FC1010E94880B882309F4F3
:1023F00078C1E02FF0E0FC83EB83B12CA12C01E04D
:102400008B819C81A816B90608F019C1D1011496D8
:102410008D919C91CB80DC80CA18DB088C159D05C2
:1024200008F46C01F101F081FD830E945C042B0132
:102430003C018091A903811172C01C2D113208F05A
:1024400010E20093A90321E08B819C818C199D09E6
:10245000A816B90608F420E02093A8038FEF809314
:10246000A7031092A603810F8093A5030093840312
:10247000909184038D81880F892B809384038091B0
:102480008303813009F091C0109283030E945C04A1
:102490002B013C01809184038093BB008091AB03AE
:1024A0009091AC03A091AD03B091AE03892B8A2B20
:1024B0008B2BA1F00E945C042091AB033091AC0304
:1024C0004091AD035091AE036419750986099709CF
:1024D000261737074807590708F442C08091BC0007
:1024E00083FDD8CF95EC9093BC000E945C042B0137
:1024F0003C018091A903813009F45BC08091A6035F
:10250000811710F41091A603E5E8F3E0ADE5B3E020
:1025100080E0811751F191919D938F5FFACF809167
:10252000AB039091AC03A091AD03B091AE03892BA6
:102530008A2B8B2B09F47DCF0E945C042091AB0386
:102540003091AC034091AD035091AE03641975090D
:1025500086099709261737074807590708F069CFF2
:102560008091AA030E94770A10E0109282031093D0
:1025700081031C151D0409F0B4C034016A0C7B1CD6
:102580002301C201861997098C159D05A0F5F1015B
:1025900081819281DC01ED91FC910284F385E02D33
:1025A0000995F20181932F01ECCFA5EEA093BC0019
:1025B0009CCF8091AB039091AC03A091AD03B091FF
:1025C000AE03892B8A2B8B2B09F493CF0E945C04DA
:1025D0002091AB033091AC034091AD035091AE0319
:1025E0006419750986099709261737074807590797
:1025F00008F07FCFB5CFAC0CBD1C02CFD701028055
:10260000F381E02D309709F44AC016962D913C9144
:10261000179710E01B964C9150E02330310579F567
:10262000816089839A834F5F5F4F9401BE016F5F22
:102630007F4FCF010E949403882309F452C0D70131
:102640001A964C9150E030E020E060E070E0CB0161
:10265000241735070CF048C0982F872F762F662750
:10266000D7011C96EC91E11137C0FA01E21BF30B84
:10267000EE0DFF1DE4856E2B2F5F3F4FE9CF211537
:10268000310519F490689983D0CF2230310511F4C7
:102690009F77F9CF2130310541F6906CF4CFF701E7
:1026A000A481B5811097E9F018968C91189788232A
:1026B000C1F01496CD90DC901597C114D10489F027
:1026C00010E094014385BE016F5F7F4F19968D9195
:1026D0009C91F6010995B0CFF701E20FF31FE58554
:1026E000CACF6FEF7FEFCB010F900F900F900F903D
:1026F0000F90DF91CF911F910F91FF90EF90DF909E
:10270000CF90BF90AF909F908F907F906F905F9091
:102710004F903F902F900895CF93DF93C091E7049F
:10272000D091E804888199810E94B011AB01BC016D
:102730002A8181E090E002C0880F991F2A95E2F774
:102740000197092E000CAA0BBB0B2B8104C07695B8
:102750006795579547952A95D2F784238D3058F47D
:10276000E82FF0E0EE0FFF1FE45DFE4F80819181C6
:10277000DF91CF9108958FEF9FEFFACFCF92DF9245
:10278000EF92FF920F931F93882339F10E948C13CD
:10279000880F991F6C01990FEE08FF080E94B4047E
:1027A0000091CF041091D0042091D1043091D20433
:1027B000DC01CB01801B910BA20BB30B8C159D058B
:1027C000AE05BF0550F4A7019601281B390B4A0B33
:1027D0005B0BCA01B9010E9481040E94B40460939A
:1027E000CF047093D0048093D1049093D20480914D
:1027F000D5049091D6040E94B011CB011F910F9186
:10280000FF90EF90DF90CF9008954F925F926F927C
:102810007F928F929F92AF92BF92CF92DF92EF9270
:10282000FF920F931F93CF93DF9300D0CDB7DEB706
:102830008C016A017B01DC018D919C910E94B01199
:102840002B013C01F801A080B180D5011A969C9023
:10285000B4E0B91508F473C0828141E050E002C0D1
:10286000440F551F8A95E2F741505109052E000C7F
:10287000660B770BF381DB01CA010F2E04C0880FB2
:10288000991FAA1FBB1F0A94D2F780959095A09517
:10289000B095482259226A227B22DB01CA018C2191
:1028A0009D21AE21BF2104C0880F991FAA1FBB1F05
:1028B000FA95D2F784299529A629B729F501818BA4
:1028C000928BA38BB48B30E020E0E92CF12C2E15F9
:1028D0003F05ACF4F501448541110AC0E20FF31F36
:1028E0008587892F9A2FAB2FBB272F5F3F4FEFCFC5
:1028F000F701E21BF30BEA0DFB1D8487F2CF6501A4
:10290000FDE0CF0ED11CD50118969C911897199611
:102910008C91199799838A838D909C90119781143B
:10292000910409F445C01B960C9110E098012E0DFE
:102930003F1DF401848195818217930710F480E094
:1029400015C081819281208131E03093AF032093C3
:10295000D1031092B0031092D20301151105C9F4EE
:1029600021E0A701B601C4010E94880B0F900F90CF
:10297000DF91CF911F910F91FF90EF90DF90CF905B
:10298000BF90AF909F908F907F906F905F904F908F
:102990000895DC01ED91FC910280F381E02DA80106
:1029A000BE016F5F7F4F09950817190741F6D8CF11
:1029B0001296ED91FC911397309749F116962D914F
:1029C0003C9117971B960C9110E02330310571F460
:1029D0008E7F89839A830F5F1F4F9E012F5F3F4F2A
:1029E000A701B601CF010E94D003C0CF2115310548
:1029F00019F49F779983F1CF2230310511F4906853
:102A0000F9CF2130310549F79F779064F3CFF50175
:102A1000A481B581109709F492CF18968C911897DC
:102A2000882309F48CCF16968D909C90179781146B
:102A3000910409F484CF870196014385BE016F5F3D
:102A40007F4F19968D919C91F40109958FCFCF936B
:102A5000DF93482F50E070E060E0C0EBD4E089AD38
:102A60009AAD0E9405140E94B4046F8F78A389A3C5
:102A70009AA3DF91CF9108950F931F93CF93DF9384
:102A8000182F0E948C13EC01412F50E070E060E0A1
:102A900000EB14E0F80187A990AD0E940514BE0177
:102AA000DD0F880B990B0E9481040E94B404F80189
:102AB000678F70A381A392A3DF91CF911F910F9194
:102AC0000895CB010C94612FFB0101900020E9F7E0
:102AD0003197AF01461B570BDC01ED91FC91028051
:102AE000F381E02D09948F929F92AF92BF92EF9263
:102AF000FF920F931F93CF93DF93CDB7DEB7A197CC
:102B00000FB6F894DEBF0FBECDBF7C01FA01CB013A
:102B100019A2223008F42AE08E010F5D1F4F822E89
:102B2000912CB12CA12CBF01A50194010E947E2DF6
:102B3000F901CA016A300CF5605DD8016E938D0110
:102B4000232B242B252B79F790E080E0109721F0A0
:102B5000BD01C7010E946415A1960FB6F894DEBFAF
:102B60000FBECDBFDF91CF911F910F91FF90EF90DE
:102B7000BF90AF909F908F900895695CDECFCF9308
:102B8000DF93BC0183ED93E00E946415EC016DE9D5
:102B900071E083ED93E00E9464158C0F9D1FDF911F
:102BA000CF910895CF92DF92EF92FF92CF93DF9370
:102BB0006C01990FEE08FF08F7FE23C06DE283ED6C
:102BC00093E00E948206EC0144275527BA014C1974
:102BD0005D096E097F092AE083ED93E00E94731579
:102BE000C80FD91F6DE971E083ED93E00E94641571
:102BF0008C0F9D1FDF91CF91FF90EF90DF90CF90D2
:102C000008952AE0B701A60183ED93E00E947315B1
:102C1000EC01E8CF2F923F924F925F926F927F929A
:102C20008F929F92AF92BF92CF92DF92EF92FF92DC
:102C30001F93CF93DF93EC016A017B01722EAB01EE
:102C40009601CB01B6010E94C02E60EA71E08111AD
:102C500026C046015701E894B7F82FEF3FEF4FE742
:102C60005FE7C501B4010E94C02E81110CC02FEF97
:102C70003FEF4FE75FE7C501B4010E94092C64EA0A
:102C800071E0181664F02FEF3FEF4FE75FE4C701E4
:102C9000B6010E94BB2E1816B4F468EA71E0CE01AA
:102CA000DF91CF911F91FF90EF90DF90CF90BF9079
:102CB000AF909F908F907F906F905F904F903F90DC
:102CC0002F900C9464152FEF3FEF4FE75FECC70197
:102CD000B6010E94092C87FDE0CF20E030E0A90179
:102CE000C701B6010E94092C312C212C87FF0DC091
:102CF000E881F9810190F081E02D6DE2CE01099526
:102D00001C01F7FAF094F7F8F09410E060E070E03E
:102D100080E09FE3711641F020E030E040E251E4B2
:102D20000E94132E1F5FF6CFA70196010E94A72DC8
:102D30002B013C010E948C2E4B015C012AE0BC015E
:102D4000A401CE010E9473157C01E20CF31C112337
:102D5000E1F1C501B4010E940E2C9B01AC01C3013D
:102D6000B2010E94A62D4B015C01E881F98101901E
:102D7000F081E02D6EE2CE010995E80EF91E1150AA
:102D800020F120E030E040E251E4C501B4010E94AE
:102D90006F2C2B013C010E948C2E4B01B12CA12CDD
:102DA0002AE0B501A401CE010E947315E80EF91EB8
:102DB000C501B4010E940E2C9B01AC01C301B201FC
:102DC0000E94A62D4B015C01DACFC701DF91CF91A4
:102DD0001F91FF90EF90DF90CF90BF90AF909F90AA
:102DE0008F907F906F905F904F903F902F900895BD
:102DF000CF93DF93AB01BC0122E083ED93E00E940F
:102E00000A16EC016DE971E083ED93E00E94641510
:102E10008C0F9D1FDF91CF9108950F931F93CF9338
:102E2000DF93EC010E94BE058C016DE971E0CE01DB
:102E30000E946415800F911FDF91CF911F910F9118
:102E400008959F92AF92BF92CF92DF92EF92FF923E
:102E50000F931F93CF93DF938A01452B09F468C02A
:102E6000E9016B016596FC016081CE010E94500C66
:102E7000FC01BB24BA94892B09F0B5807601E89453
:102E8000F7F8AA24A3946701C00ED11E9924939445
:102E9000309709F44DC0AA2009F43FC084818430E2
:102EA00069F0853049F1823079F5DF010D9000201D
:102EB000E9F71197CD018E1B9F0B07C00190F081A0
:102EC000E02D90E080E0309781F79F77E816F906D3
:102ED00021F5D801AC15BD05E1F46B2DCE01DF91D4
:102EE000CF911F910F91FF90EF90DF90CF90BF9007
:102EF000AF909F900C94500CA081B181FD0134964D
:102F000013968C9190E0E2CF90E080E0F0E0E0E07A
:102F1000DDCF9D9181919817E9F2A9246B2DCE0107
:102F20000E94500CFC01892B09F4B2CFB580B0CFC0
:102F300090E080E0DF91CF911F910F91FF90EF9093
:102F4000DF90CF90BF90AF909F900895CF92DF9287
:102F5000EF92FF92CF93DF9300D000D01F92CDB7B6
:102F6000DEB7FC0120813181C9014A96428153813B
:102F700064817581009719F470E060E028C0D90180
:102F80005E96EC91E03211F090E080E00097A1F3C2
:102F90000E942117DC01009779F31496EC911497A5
:102FA000E250ED3048F7F0E0E852F84E0C94A02DD6
:102FB0001718BC1715182918E517BC17BC17BC172C
:102FC000F417BC170218BC172D186C9170E0CB01D8
:102FD0000F900F900F900F900F90DF91CF91FF9077
:102FE000EF90DF90CF9008958D919D910D90BC91C1
:102FF000A02D811520E89207A105B10508F0BCCFEE
:10300000BC01E5CF8D919D910D90BC91A02D6C01DF
:103010007D0120E8D20EE11CF11CC114D10421E095
:10302000E206F10408F0A8CFEBCF8D919C910E94AD
:10303000840D3A834B835C836D83CA80DB80EC8094
:10304000FD80223041F1233091F1213009F094CFFD
:1030500008C08D919C910496EACFCD90DD90ED90C3
:10306000FC9020E030E040E057ECC701B6010E9440
:10307000BB2E87FD81CF20E03EEF4FEF56E4C70126
:10308000B6010E94092C18160CF476CFC701B601C0
:103090000E94852E9CCFD701C6019058AF4FBF4FDD
:1030A0000097A140B10508F067CFB60190CFC114D9
:1030B00080E8D806E104F104C0F35ECFCB010C94A4
:1030C000C52E0E94A7300F931F93CF93DF93EC017F
:1030D00088819981009759F02A813B81261737070B
:1030E00030F081E0DF91CF911F910F9108958B0116
:1030F0006F5F7F4F0E94EA2F009759F09983888372
:103100001B830A832C813D81232B59F7FC011082FC
:10311000E8CF80E0E7CFCB01BA010C94EA2F85ED30
:103120008093BC008091AB039091AC03A091AD0360
:10313000B091AE030796A11DB11D23E0B695A795EA
:10314000979587952A95D1F72091BC0024FD03C05F
:103150001092A90308954091AB035091AC03609184
:10316000AD037091AE03452B462B472B69F30097B7
:10317000A105B10541F02AE22A95F1F700C00197B7
:10318000A109B109E1CF8091AA030C94770ABF92FB
:10319000CF92DF92EF92FF920F931F93CF93DF9323
:1031A000EC01198D1F3F81F0612F45960E94500C54
:1031B000FC018081898F309709F477C014828FEFEA
:1031C0008583BF01812F76C06C0135E0C30ED11C11
:1031D000E880F9808F89882341F0C6010E94130D91
:1031E000E62FF72F182F309749F71F89988D19135D
:1031F00024C0103109F459C0110F6D897E89D7019F
:10320000ED91FC91B4E01B9FA0011124C616D706D6
:1032100009F044C00190F081E02DBA01C701099581
:10322000009709F442C020E1F601DC0101900D9203
:103230002A95E1F79E8B8D8B188F0D891E898F89BA
:1032400021E0280F2F8BE4E08E9FC0011124080F8E
:10325000191F90E1B92E203111F48FE0B82EF6E05D
:10326000BF9EB0011124D701ED91FC910190F08136
:10327000E02DC7010995F80193838283892B09F416
:10328000B12CD801BC9211961C92012B71F0C60191
:103290000E94130DE62FF72F182F8DCF0480F58194
:1032A000E02DC7010995009729F681E08A8360E047
:1032B00070E08FEFDF91CF911F910F91FF90EF9012
:1032C000DF90CF90BF9008953F924F925F926F92A0
:1032D0007F928F929F92AF92BF92CF92DF92EF92A6
:1032E000FF920F931F93CF93DF9300D000D01F92D4
:1032F000CDB7DEB78C017B01B42E0E94CA0C6C01E5
:10330000892B09F053C0C8010E947C0C863609F451
:10331000C2C17CF5873229F08B35B9F1823209F0D0
:10332000C1C1D80115961C921E92149712968D91C8
:103330009C911397892B91F4CD90DC90F6016081DC
:1033400071818FE190E00E945011009721F421E0FB
:10335000D60112962C93F80193838283C8010E94B0
:10336000590F6C01892B11F5B701C8010E94381063
:103370001DC0843709F46DC18B3709F47CC08E36CB
:1033800009F090C167EB71E06DC180E4D70114963C
:103390008C931497E114F10421F08FEF8C93119624
:1033A0008C93B1101BC025E0C22ED12CC6010F900A
:1033B0000F900F900F900F90DF91CF911F910F9171
:1033C000FF90EF90DF90CF90BF90AF909F908F9045
:1033D0007F906F905F904F903F900895F801148612
:1033E000C8010E94CA0C009751F56DE5C8010E9402
:1033F000960C8111DBCFBA94D8011D966D907C900C
:10340000C3010E94C718A82E4B01672B21F494E03A
:10341000C92ED12CCBCFF70161816F3F91F0C30151
:1034200045960E94500CDC011596AC92F701A182E2
:103430004B2DB401C8010E946419009739F06C014A
:10344000B5CFD7018C9311968C93F2CFC8010E940F
:10345000CA0C0097A1F76DE5C8010E94960C811176
:10346000A5CF6CE2C8010E94960C8111C5CF83E004
:10347000C82ED12C9BCF80E2F7018483E114F104A4
:1034800019F08FEF80838183BB2009F48CCFD801A2
:103490001C961C92C8010E94CA0C009781F66DE729
:1034A000C8010E94960C811181CF55245394BA947F
:1034B000F8011582148282819381892B91F4C08056
:1034C000D180D6016D917C918FE190E00E945011E6
:1034D000009711F4F6015282D80113969C938E93B3
:1034E0001297C8010E947C0C873201F18232F1F000
:1034F000C8010E947C0CD82E0E946A0C882309F413
:10350000B6CFF80114866D2DC8010E942B0FC8019B
:103510000E947C0CD82E0E946A0C8111F2CFD80137
:1035200012968D919C91892B41F471CFC8010E9414
:10353000590F6C01892B09F039CFC8010E94CA0CC0
:103540006C01892B09F032CF6AE3C8010E94960C06
:10355000882309F48CCFD8011296ED91FC91139732
:1035600014968D919C911597E80FF91F148214966B
:103570006D917C9115977F771D966D907C901E972D
:1035800012968D919C910496272F2F77BA2DB078A3
:10359000AB2EA22AE894A7F89301AC017A2DC701BB
:1035A0000E9421176C01009761F5C3010E94C718A2
:1035B000382E4B01672B09F42ACFC3010E94C7188C
:1035C000482E962FC92ED72EC114D10409F41FCF2F
:1035D000F4014582D70111966C916F3F71F0C301E0
:1035E00045960E94500CFC013582D70111964C92F1
:1035F000B401C8010E94381007C0F701308241822F
:10360000F7CFB3010E94CA104B2DB601C8010E942A
:1036100064196C01892B09F0C9CEC8010E94CA0C3B
:103620006C01892B09F0C2CE6DE7C8010E94960C8F
:103630008111BCCE6CE2C8010E94960C882309F46B
:1036400016CFC8010E94CA0C6C01892B09F430CF37
:10365000ADCE86E0D70114968C93149781E08C93BD
:103660006CEA71E0C8010F900F900F900F900F90CF
:10367000DF91CF911F910F91FF90EF90DF90CF904E
:10368000BF90AF909F908F907F906F905F904F9082
:103690003F900C94A70C86E0F7018483108261EBC5
:1036A00071E0E0CFC8010E947C0C4801FFE08F0E62
:1036B000911CB12C782CA92C803384F08A3384F4AB
:1036C0003FE3B316A9F0D8011C961C92B394F40101
:1036D00081934F01C8010E947C0CEECF8B3281F3A5
:1036E00093ED980F923060F3982F9F7D953441F3BE
:1036F0000B0D111DD8011F961C92872D9A2D0E942B
:10370000840D3A834B835C836D838A819B81AC817A
:10371000BD812230A9F0233059F0213009F0A7CE25
:103720002EE0F701248380839183A283B3833ECE6E
:103730002AE0F701248380839183A283B38336CE6A
:103740002CE0F7CF2F923F924F925F926F927F9231
:103750008F929F92AF92BF92CF92DF92EF92FF92A1
:103760000F931F93CF93DF9300D000D0CDB7DEB778
:10377000FC0100811181C8014A96C1F480E00F90DC
:103780000F900F900F90DF91CF911F910F91FF90AD
:10379000EF90DF90CF90BF90AF909F908F907F90F1
:1037A0006F905F904F903F902F9008957480B580F8
:1037B000828093808114910409F3F801268D2111F0
:1037C00049C020E2268F2FEF228F238F2B01A401E7
:1037D0009801672D7B2D0E9421176C01892B41F5E3
:1037E000C8010E94C718282E7B01672B39F2C80137
:1037F0000E94C718382E962FC92ED72EC114D10477
:1038000009F4BCCFB7FE2AC084E0F701848391821B
:103810008082F7013582F801638D6F3F09F485C01E
:10382000C80145960E94500CFC012582F801338E98
:10383000F20180809180A280B380B801C6010E940D
:10384000CA108EE0F601848380829182A282B382C4
:1038500081E095CF203209F4B9CF90CF372D8B2D51
:103860008F77A72CB82EF4E0AF16B104F8F4D4018A
:10387000F40190E0482D2E2F2819231730F4519190
:1038800021E0511120E0922BF6CF91110FC082E080
:10389000F70184838A2F841B831718F48D918193F9
:1038A000F9CFF701E30FF11D1082B3CFF80160806B
:1038B00071809A8289823B838C83BE016F5F7F4FC8
:1038C000C80103960E94EC0C009751F0FC01228184
:1038D0002F5F228325E0F70124839183808399CF92
:1038E000B301C5010E945011009721F481E0F80155
:1038F000828344CFE981FA81DC01149695012E0F71
:103900003F1FE217F30719F041914D93FACFFC01E5
:10391000EA0DFB1D1482F80123813481FC013183FF
:103920002083F80194838383D5CF228E80CF1F928A
:103930000F920FB60F9211242F933F938F939F9363
:10394000AF93BF938091550390915603A091570375
:10395000B09158033091540323E0230F2D3758F5CD
:103960000196A11DB11D209354038093550390939C
:103970005603A0935703B093580380915903909135
:103980005A03A0915B03B0915C030196A11DB11D88
:103990008093590390935A03A0935B03B0935C0305
:1039A000BF91AF919F918F913F912F910F900FBE3B
:1039B0000F901F90189526E8230F0296A11DB11DA8
:1039C000D2CF1F920F920FB60F9211242F933F93D5
:1039D0004F935F936F937F938F939F93AF93BF9317
:1039E000EF93FF9383ED93E00E946006FF91EF91C8
:1039F000BF91AF919F918F917F916F915F914F9107
:103A00003F912F910F900FBE0F901F9018951F920E
:103A10000F920FB60F9211242F938F939F93EF93D2
:103A2000FF93E091E303F091E4038081E091E903E7
:103A3000F091EA0382FD1BC090818091EC038F5FBF
:103A40008F732091ED03821741F0E091EC03F0E0D9
:103A5000ED52FC4F958F8093EC03FF91EF919F9176
:103A60008F912F910F900FBE0F901F90189580810E
:103A7000F4CF1F920F920FB60F9211242F933F9302
:103A80004F935F936F937F938F939F93AF93BF9366
:103A9000EF93FF93E0913E03F0913F03309749F09D
:103AA000A685B7858585968D91FF14C09C91892345
:103AB000A1F4FF91EF91BF91AF919F918F917F9171
:103AC0006F915F914F913F912F910F900FBE0F908B
:103AD0001F9018959C91892361F7A389B4899C91C3
:103AE0008589809589238C93868997890197F1F739
:103AF000608D718DA685B785558538E020E0CB01B6
:103B00000197F1F7822F90E095958795282F4C919A
:103B1000452309F02068315091F7868D81FD20956D
:103B200080913D0390E001968F73992730913C037B
:103B3000381799F0A0913D03B0E0A450BD4F2C93ED
:103B400080933D03828D938D0197F1F7A389B4890A
:103B50008C919589892B8C93ACCF868D8160868FD3
:103B6000F1CF1F920F920FB60F9211242F933F9314
:103B70004F935F936F937F938F939F93AF93BF9375
:103B8000EF93FF938091B900887F803609F44AC093
:103B9000F0F5883209F4A7C018F5803109F49BC00C
:103BA000B8F4882309F4F9C0883009F494C0FF916F
:103BB000EF91BF91AF919F918F917F916F915F91A5
:103BC0004F913F912F910F900FBE0F901F9018951E
:103BD000883109F488C0803251F78093A70314C05C
:103BE000803409F49DC040F48033B9F38833F9F68A
:103BF0008093A70385ECB0C0803509F485C0883573
:103C000009F496C0883499F60E948F18D0CF88396D
:103C100009F48CC038F5883729F050F4883611F053
:103C2000803729F683E08093A9031092FB0257C0E6
:103C3000883809F47BC0803919F0803809F0B7CF93
:103C40008091FB02803208F071C0E091FB0281E0BC
:103C50008E0F8093FB028091BB00F0E0E552FD4F98
:103C600080833DC0803B39F0E0F4803A09F479C0AC
:103C7000883A09F09CCF84E08093A9031092DA027D
:103C80001092D902E0917F03F09180030995809111
:103C9000D90281110FC081E08093D9021092B9023C
:103CA00009C0803C09F4A6CF883C09F4A3CF883B27
:103CB00009F07DCFE091DA0281E08E0F8093DA0285
:103CC000F0E0E754FD4F80818093BB009091DA02D1
:103CD0008091D90229C0809184038093BB0085EC38
:103CE0008093BC0064CF9091A6038091A5039817A0
:103CF00058F5E091A60381E08E0F8093A603F0E0D3
:103D0000EB57FC4F8081E9CFE091A60381E08E0F55
:103D10008093A6038091BB00F0E0EB57FC4F8083BB
:103D20009091A6038091A5039817C8F285E8D8CF93
:103D3000E091A60381E08E0F8093A6038091BB00E3
:103D4000F0E0EB57FC4F80838091A80381115CCF9A
:103D500081E08093830384EA8093BC001092A903DE
:103D600026CF85EC8093BC001092A9038091FB02C2
:103D7000803230F4E091FB02F0E0E552FD4F10821A
:103D80006091FB0270E0E0917D03F0917E038BED8A
:103D900092E009951092FB020ACF1092A70334CF4C
:103DA0001092D6031092D50388EE93E0A0E0B0E025
:103DB0008093D7039093D803A093D903B093DA03E9
:103DC0002AE431E03093D4032093D30325EC30E090
:103DD0003093E0032093DF0324EC30E03093E203E0
:103DE0002093E10320EC30E03093E4032093E303DD
:103DF00021EC30E03093E6032093E50322EC30E041
:103E00003093E8032093E70326EC30E03093EA0395
:103E10002093E9031092EC031092ED031092EE034D
:103E20001092EF0310927304109272048093740442
:103E300090937504A0937604B09377042CE531E059
:103E400030937104209370042AE02093B5043BE082
:103E50003093B604EBEAF3E0E491E093B704E7E9CA
:103E6000F3E0E491E093B80440E85EE360E070E0E2
:103E70004093BD045093BE046093BF047093C0048C
:103E80004AEF5DEE6BE67BE34093C3045093C404BA
:103E90006093C5047093C60440E050E060E070E4B5
:103EA0004093C7045093C8046093C9047093CA0434
:103EB00040E050E068E474E44093CB045093CC04B9
:103EC0006093CD047093CE043FE03093F10430E171
:103ED0003093F20434E13093F30435E13093F40489
:103EE00040E058E969EE76E44093F5045093F60417
:103EF0006093F7047093F80440E050E66AEE75E4CE
:103F00004093F9045093FA046093FB047093FC040B
:103F10001092FD041092FE041092FF04109200050E
:103F200010920105109202051092030510920405EB
:103F300010920505109206051092070510920805CB
:103F40001092090510920A0510920B0510920C05AB
:103F500010920D0510920E0510920F05109210058B
:103F6000109211051092120510921305109214056B
:103F7000109215051092160510921705109218054B
:103F80001092190510921A0510921B0510921C052B
:103F900010921E0510921D0520931F0540E050E071
:103FA00060E270E440932005509321056093220560
:103FB0007093230544EA50E76DE37EE340932405C4
:103FC000509325056093260570932705109294045D
:103FD000109293048093950490939604A093970471
:103FE000B09398048CE791E09093920480939104AD
:103FF0001092A8041092A7041092AA041092A90487
:104000001092AC041092AB041092AE041092AD0466
:104010006091AF046E7F6D7F6093AF0466956170B1
:1040200081E0682783E00E942D0361E083E00E9425
:104030000B04E4EAF3E0E491E093A104E0E9F3E0A7
:10404000E491F0E0EE0FFF1FED57FC4F8591949146
:104050009093A3048093A20460E082E00E940B048A
:104060008091AF0481FD04C061E082E00E942D03D5
:1040700082E080939D04E3EAF3E0E491E0939E0400
:10408000EFE8F3E0E491F0E0EE0FFF1FE758FC4F9C
:10409000859194919093A00480939F0410927F0443
:1040A00010927E04109288041092890410928B045E
:1040B00010928A0410928C0481E080938D048EE625
:1040C00091E090937D0480937C0410929004089575
:1040D000CF93DF93CDB7DEB7C858D1090FB6F894A8
:1040E000DEBF0FBECDBF789484B5826084BD84B539
:1040F000816084BD85B5826085BD85B5816085BDE3
:1041000080916E00816080936E001092810080919A
:104110008100826080938100809181008160809322
:104120008100809180008160809380008091B10047
:1041300084608093B1008091B00081608093B00072
:1041400080917A00846080937A0080917A00826006
:1041500080937A0080917A00816080937A008091C8
:104160007A00806880937A001092C100E091E303A6
:10417000F091E40302E00083E091DF03F091E003BB
:104180001082E091E103F091E20310E110831092BC
:10419000EB03E091E703F091E803B6E09B2E9082F9
:1041A000E091E503F091E603808180618083E091F6
:1041B000E503F091E603808188608083E091E50368
:1041C000F091E603808180688083E091E503F091BF
:1041D000E60380818F7D808362E08091B5040E9438
:1041E0000B040E94B404605D7740810991096093DB
:1041F000B9047093BA048093BB049093BC0487E322
:104200008093C20460E08091F1040E940B0460E09E
:104210008091F2040E940B0460E08091F3040E94FC
:104220000B0460E08091F4040E940B040E94600A79
:1042300086E090E00E94C52E7C01DC011C9380E7A3
:1042400094E012969C938E93119713961C92139759
:1042500080E290E015969C938E931497F092F00470
:10426000E092EF040E94600A11E0F7011383C70196
:104270000E94A60BEB968FAFEB97811105C08CEBDC
:1042800091E00E94BF15FFCF85E190E00E94C52E0E
:104290007C01A090EF04B090F004DC0151961D92D7
:1042A0001D921D921C9254971196BC92AE92139639
:1042B0001C921E9212971B961C931B9719961C9288
:1042C0001E9218971C961C921C971A960C9390930A
:1042D000D4048093D30485E190E00E94C52EFC01B4
:1042E000118A128A138A148AB182A08213821282DE
:1042F000138781E090E09187808714860287F0938E
:10430000DA04E093D90485E190E00E94C52EFC0117
:10431000118A128A138A148AB182A08213821282AD
:10432000138782E090E09187808714860287F0935C
:10433000DC04E093DB0485E190E00E94C52E6C0173
:10434000FC01118A128A138A148AB182A082138214
:104350001282138783E090E091878087148602871A
:10436000D092DE04C092DD0485E190E00E94C52E6B
:10437000FC01118A128A138A148AB182A0821382E4
:104380001282138784E090E09187808714860287E9
:10439000F093D604E093D50485E190E00E94C52E09
:1043A000FC01118A128A138A148AB182A0821382B4
:1043B0001282138785E090E09187808714860287B8
:1043C000F093D804E093D70485E190E00E94C52ED5
:1043D000FC01118A128A138A148AB182A082138284
:1043E0001282138786E090E0918780871486028787
:1043F000F093E004E093DF0484E090E00E94C52E97
:104400005C01DC011196FC92EE9212961C931297BD
:1044100013961C929093E2048093E10484E090E070
:104420000E94C52EFC01F182E082128313839093D7
:10443000E4048093E30484E090E00E94C52EFC0134
:10444000F182E0820283A4E08A2E83829093E604C4
:104450008093E50484E090E00E94C52EFC01F18287
:10446000E082828293829093E8048093E70484E060
:1044700090E00E94C52EFC01F182E08202838BE075
:104480008383F093EA04E093E90484E090E00E94DF
:10449000C52EFC01D182C082128313829093EC045A
:1044A0008093EB0484E090E00E94C52EFC01D18251
:1044B000C082028313839093EE048093ED0441E065
:1044C00050E060E070E0C5010E94051440E050E05B
:1044D000BA018091E3049091E4040E94051440E045
:1044E00050E0BA018091E5049091E6040E94051421
:1044F00082E00E94271580E00E943C1540E050E0D9
:10450000BA018091EB049091EC040E94051440E004
:1045100050E0BA018091E1049091E2040E940514F8
:1045200065E070E080E090E00E9481040E94B404A5
:104530006093CF047093D0048093D1049093D204FD
:1045400086ED91E00E94BF150E94600A1093AF03B0
:104550001CE31093D1031092B0031092D20381E0B8
:104560000E94980A811194C169EB72E083ED93E097
:104570000E940D1710928F0410938E0410928004E5
:1045800010928104E3EBF2E085919491E82EE5EB43
:10459000F2E0F490E6EBF2E0E491E0938204E7EBE2
:1045A000F2E0E491E0938304E8EBF2E0E491E0933D
:1045B00084048C01802F8E198F1548F4F8016491C2
:1045C0008CE794E00E94EA070F5F1F4FF3CF0E9431
:1045D0005E08EDECF0E0F0938B04E0938A048491A4
:1045E000EEECF0E0E491F82F319709F04DC1109214
:1045F00085040E945E0882E080938D0467EC70E081
:104600008CE794E00E940D1761EC70E08CE794E079
:104610000E940D1781E080938D04809390046CEDCF
:1046200075E080E090E00E9481041092AC0410924A
:10463000AB041092AA041092A9041092A80410923C
:10464000A7048DE991E09093AE048093AD0490911E
:104650009D04963108F047C02DEB30E03093A8045C
:104660002093A7042BE931E03093AA042093A904F6
:104670002CE231E03093AC042093AB04209168002D
:1046800084E0983048F031E09E3008F430E081E07A
:1046900001C0880F3A95EAF7822B809368002DE6D7
:1046A00030E0983050F02BE630E09E3030F02CE6D1
:1046B00030E0963110F030E020E03093A5042093F4
:1046C000A404292F30E0983008F0EBC081E001C04D
:1046D000880F9A95EAF78093A6048091AD04909193
:1046E000AE040197F1F78091AB049091AC04892B53
:1046F00049F1E0913E03F0913F0324E0E139F207F4
:1047000009F1309739F0A389B4899C918589809506
:1047100089238C938091AF048E7F8093AF04109295
:104720003D0310923C0381E994E090933F03809312
:104730003E03E091A404F091A50480819091A60429
:10474000892B80838091080190910901A0910A0131
:10475000B0910B01CD57DF4F88839983AA83BB8328
:10476000C358D040A0E5B0E0AC0FBD1F5A96C95762
:10477000DF4FB983A883C758D0408E010F5F1F4F0A
:10478000F0E52F2E312C2C0E3D1EB5E02B0E311CEA
:104790000E94B4042B013C0180915003909151037D
:1047A000A0915203B0915303A3019201281B390B2E
:1047B0004A0B5B0BDA01C90184369105A105B105ED
:1047C00008F430C14092500350925103609252035A
:1047D00070925303B12CA12CEA961CAE1DAE1EAEF6
:1047E0001FAEEA97C12CD12C760160911F0570E0B5
:1047F000A616B7060CF062C08091F1040E9447042F
:104800008091F2040E94470460910D0570910E059D
:1048100080910F05909110050E948C2E862F0E948A
:104820004704092E000CAA0BBB0BC80ED91EEA1EAA
:10483000FB1E6091110570911205809113059091F6
:1048400014050E948C2E862F0E944704092E000C0E
:10485000AA0BBB0BEA962CAD3DAD4EAD5FADEA9712
:10486000280F391F4A1F5B1FEA962CAF3DAF4EAF92
:104870005FAFEA9762E070E080E090E00E94810420
:104880003FEFA31AB30AB1CF81E080938504B1CE84
:1048900065EC72E083ED93E00E940D171092900496
:1048A000C4CE9E3040F42850310981E001C0880F09
:1048B0002A95EAF710CF2E503109F7CF072E000CBA
:1048C000880B990B0E94102CEF966CAF7DAF8EAFCA
:1048D0009FAFEF9780E090E0A0E0B1E48093050502
:1048E00090930605A0930705B093080520E030E0FB
:1048F00040E551E42093090530930A0540930B05E8
:1049000050930C058090200590902105A0902205E1
:10491000B09023058091240590912505A09126054E
:10492000B0912705C158DF4F88839983AA83BB8341
:10493000CF57D040C701B6010E94102CEF962CAD86
:104940003DAD4EAD5FADEF970E94132E2AE038E2E9
:1049500040EA5BE30E946F2CA50194010E94A62D02
:10496000C158DF4F288139814A815B81CF57D040C0
:104970000E94132E6B017C01C0920D05D0920E0592
:10498000E0920F05F0921005EA966CAD7DAD8EAD0C
:104990009FADEA970E94102CEF962CAD3DAD4EAD29
:1049A0005FADEF970E94132E2AE038E240EA5BE306
:1049B0000E946F2CA50194010E94A62DC158DF4FC3
:1049C000288139814A815B81CF57D0400E94132EC4
:1049D0004B015C018092110590921205A092130583
:1049E000B092140520E030E040E051E4C701B60188
:1049F0000E946F2C60931505709316058093170520
:104A00009093180520E030E040E551E4C501B40181
:104A10000E946F2C6093190570931A0580931B05F3
:104A200090931C0580914C0390914D03A0914E03EF
:104A3000B0914F03A3019201281B390B4A0B5B0B6A
:104A4000DA01C901803D9740A105B10508F4D7C03E
:104A500040924C0350924D0360924E0370924F036C
:104A60000E94C004882341F08091B6048C3009F480
:104A700063C048F48B3001F1C12CD12C70ECE72ECF
:104A80007FE7F72E43C085518230B0F7B090B20473
:104A90006B2D70E0762F662766277F778091B304B1
:104AA000682B90E080E00E940E2C2DEC3CEC4CEC4E
:104AB0005DE30E946F2C5CC06091B20470E090E0F6
:104AC00080E00E940E2C6B017C01B090B304B7FE15
:104AD0000AC0AC019B0160E070E080E89FEB0E949F
:104AE000A62D6B017C016B2D6F7070E090E080E073
:104AF0000E94102C2DEC3CEC4CEC5DE30E946F2CE2
:104B0000A70196010E94A72D6B017C010E94C004A1
:104B1000882309F402C28091B6048B3030F08D30C6
:104B200080F18551823008F4E6C1812C912C60EC33
:104B3000A62E6FE7B62E43C0B090B2046B2D70E086
:104B400090E080E00E940E2C6B017C016091B30428
:104B50006F7070E090E080E00E94102C2DEC3CEC37
:104B60004CEC5DE30E946F2CA70196010E94A72DDB
:104B70006B017C01B7FECACFF7FAF094F7F8F09416
:104B8000C5CF6091B10470E090E080E00E94102CED
:104B90002DEC3CEC4CEC5DE30E946F2C4B015C0176
:104BA0006091B00470E090E080E00E94102C9B01C6
:104BB000AC01C501B4010E94A72D4B015C01A70106
:104BC0009601C701B6010E94C02E8111A6C1A501A0
:104BD0009401C501B4010E94C02E81119EC1C092F2
:104BE000FD04D092FE04E092FF04F0920005809252
:104BF000010590920205A0920305B09204058091F0
:104C0000480390914903A0914A03B0914B03A3013B
:104C10009201281B390B4A0B5B0BDA01C901883E54
:104C20009340A105B10508F409C140924803509290
:104C3000490360924A0370924B03CD57DF4F88813E
:104C40009981AA81BB81C358D04064968CAF9DAF37
:104C5000AEAFBFAF649786E0ECE0F1E0D801019021
:104C60000D928A95E1F782E00E94271580E00E946C
:104C70003C1581E00E94BE137C0195E6E916F10423
:104C800008F452C1A1E1EA16A7E2FA0688F088E02A
:104C90000E943C1581E00E94BE137C018131974245
:104CA00038F08CE00E943C1581E00E94BE137C012C
:104CB000EB96DFACEB978090C3049090C404A09077
:104CC000C504B090C6048091CB049091CC04A0910F
:104CD000CD04B091CE04EA968CAF9DAFAEAFBFAF1E
:104CE000EA970E948C13BC01990F880B990B0E94C4
:104CF000102C9B01AC01EA966CAD7DAD8EAD9FADE5
:104D0000EA970E94132EA50194010E946F2C4B017B
:104D10005C012091C7043091C8044091C9045091AE
:104D2000CA04EF962CAF3DAF4EAF5FAFEF97409107
:104D3000E9045091EA04E8965FAF4EAFE897DA01D4
:104D40008D919C910E94B011AB01BC01E896EEAD33
:104D5000FFADE897828121E030E002C0220F331FCF
:104D60008A95E2F7C9010197092E000CAA0BBB0B2B
:104D7000238104C076956795579547952A95D2F774
:104D8000842320E030E040E85FEB843050F434E0EE
:104D9000839FF0011124E45EFE4F20813181428126
:104DA0005381EF966CAD7DAD8EAD9FADEF970E94B8
:104DB000132EA50194010E946F2C4B015C01B701D9
:104DC00090E080E00E940E2C9B01AC01C501B40173
:104DD0000E946F2C4B015C01DD2041F126ED33E494
:104DE00049E25BE20E946F2C26E33CE541E252E39C
:104DF0000E94A62DA50194010E946F2C29E834EE93
:104E00004AEA58E30E94A72DA50194010E946F2C45
:104E10002EE53BE440E85FE30E94A72D9B01AC0137
:104E2000C501B4010E946F2C4B015C01C501B401A6
:104E30000E94852E70931E0560931D0581E994E004
:104E40000E946407892B09F476C1E2961FAE1EAE5C
:104E5000E297E4961FAE1EAEE497E6961FAE1EAE36
:104E6000E69770E060E0CE0180599F4F0E94631882
:104E7000E2962EAD3FADE297811181C0211531053B
:104E800019F0C9010E94612FE2961FAE1EAEE29793
:104E9000E6961FAE1EAEE697E4961FAE1EAEE497F2
:104EA0000E949B07E696EEACFFACE69797FD71C0BB
:104EB0008A30910509F46DC089831A824FEFE41A94
:104EC000F40AB701CE0180599F4F0E9463188823CE
:104ED00039F3E2962EAD3FADE297E6968EAD9FADEB
:104EE000E697B801820F931F0E94B530E696FFAE99
:104EF000EEAEE697D5CF6091B0047091B1047627FD
:104F00006727762790E080E00E940E2C2DEC3CEC89
:104F10004CEC5DE30E946F2C50CE65ED72E083EDAA
:104F200093E00E940D176BCE52E0C52ED12CE3E02A
:104F3000DE1205C0F5E0CF1217C0D12CBCCE22E0A6
:104F40002D1590F0D394E0E5F0E0EC0FFD1FED0D92
:104F5000F11D80810E94271581E00E94BE137C0113
:104F60008536910520F3E9CF34E03C15A8F3C394CE
:104F7000F801EC0DF11D80810E943C15EDCFE69605
:104F80001FAE1EAEE6976CE971E0C9010E94B53014
:104F900087CF80E091E062969FAF8EAF6297639675
:104FA0001FAE639765961FAE1EAE6597A7963FAE80
:104FB0002EAEA797A8961FAEA89784E0A9968FAFAC
:104FC000A9978FEFAA968FAFAA97AF961FAEAF970C
:104FD000E0968FAFE097E296CEACDFACE29760E070
:104FE00071E0C1010E943F0D63961FAE6397629608
:104FF000AEACBFAC629765968EAD9FAD65970097DE
:1050000059F0DC012D913C9165963FAF2EAF65972D
:10501000B5010E94C010EFCFAF961FAEAF97E0E58D
:10502000F0E0EC0FFD1FFA83E9831C821B821E82D5
:105030001D821F82D986C886EC0CFD1CFB86EA8681
:105040001D86FF87EE874AE0C957DF4F6881798167
:10505000C758D040C8010E9464197C01892B59F4BB
:105060008C85882341F0AF968FADAF9783FF03C047
:1050700043E0E42EF12C8B819C81009731F0E98193
:10508000FA81608171810E94C010EF2809F046C04A
:1050900020E530E02C0F3D1F3A8329838CEE91E010
:1050A0009C838B8336E0F32EFD828E81807880682E
:1050B0008E83C8010E94A6176C0140E550E04C0F9A
:1050C0005D1F5A83498383EF91E09C838B83FD822C
:1050D0008E81807880688E83C8010E94A6177C012B
:1050E0006AE173E083ED93E00E940D1760E173E0E5
:1050F00083ED93E00E94BE05C6010E94D2156AE0CE
:1051000073E083ED93E00E94BE05C7010E94D215B3
:1051100069EE72E083ED93E00E940D17CE01805B93
:105120009F4F0E943211E2968EAD9FADE29700979D
:1051300011F00E94612F8091440390914503A0914A
:105140004603B0914703A3019201281B390B4A0B78
:105150005B0BDA01C901883E9340A105B10508F453
:1051600052C14092440350924503609246037092AC
:10517000470380919004882309F493C00E945E083D
:1051800040E060E08CE794E00E94170865E573E07A
:105190008CE794E00E94BE054091050550910605FC
:1051A000609107057091080521E08CE794E00E946A
:1051B0000A1660E573E08CE794E00E94BE052DECD2
:1051C0003CEC4CE45EE3609115057091160580910E
:1051D0001705909118050E946F2CAB01BC0121E0CE
:1051E0008CE794E00E940A166EE473E08CE794E08A
:1051F0000E94BE0542E060E08CE794E00E94170840
:1052000068E473E08CE794E00E94BE0540910905D4
:1052100050910A0560910B0570910C0521E08CE717
:1052200094E00E940A1663E473E08CE794E00E9425
:10523000BE052DEC3CEC4CE45EE3609119057091E9
:105240001A0580911B0590911C050E946F2CAB01E3
:10525000BC0121E08CE794E00E940A1661E473E04F
:105260008CE794E00E94BE0546E060E08CE794E0A5
:105270000E9417086BE373E08CE794E00E94BE0580
:1052800060911D0570911E05072E000C880B990B6F
:105290000E94102CAB01BC0120E08CE794E00E943E
:1052A0000A168AEF91E00E94BF156FE172E083ED6C
:1052B00093E00E94641560911D0570911E05072EF4
:1052C000000C880B990B0E94102C0E94F81666E2C5
:1052D00072E083ED93E00E9464156091FD0470918B
:1052E000FE048091FF04909100050E94F8166EE282
:1052F00072E083ED93E00E94641560910105709166
:10530000020580910305909104050E94F81667E359
:1053100072E083ED93E00E94641560910505709141
:10532000060580910705909108050E94F81662E431
:1053300072E083ED93E00E9464156091090570911D
:105340000A0580910B0590910C050E94F8166FE4F8
:1053500072E083ED93E00E9464152DEC3CEC4CE48C
:105360005EE360910D0570910E0580910F0590919F
:1053700010050E946F2C0E94F81667E572E083ED1D
:1053800093E00E9464152DEC3CEC4CE45EE36091EC
:1053900011057091120580911305909114050E94DA
:1053A0006F2C0E94F81660E672E083ED93E00E9495
:1053B00064152DEC3CEC4CE45EE3609115057091B6
:1053C000160580911705909118050E946F2C0E9478
:1053D000F8166CE672E083ED93E00E9464152DEC04
:1053E0003CEC4CE45EE36091190570911A058091E4
:1053F0001B0590911C050E946F2C0E94F8168AEFE5
:1054000091E00E94BF158091400390914103A091CB
:105410004203B0914303A3019201281B390B4A0BAD
:105420005B0BDA01C901883B9B40A105B10508F47B
:10543000C4C1409240035092410360924203709273
:10544000430340E051E05A8349831B821D821C8242
:1054500086E090E08C0F9D1F9F8B8E8B188E84E0D2
:10546000F82EF98E8FEF8A8F1F8E88A38091FD040E
:105470009091FE04A091FF04B0910005E4968CAFDA
:105480009DAFAEAFBFAFE49762961FAF0EAF62970E
:1054900089E792E064969FAF8EAF64976596FFAE02
:1054A000659766968FAD66978078806866968FAFB1
:1054B0006697BE0160597F4FCE01805B9F4F0E946F
:1054C000A21B8091010590910205A0910305B09166
:1054D0000405E4968CAF9DAFAEAFBFAFE497629684
:1054E0001FAF0EAF62978EE792E064969FAF8EAFCC
:1054F000649795E0D92E6596DFAE659766968FAD79
:1055000066978078806866968FAF6697BE0160590F
:105510007F4FCE01805B9F4F0E94A21B80910505AB
:1055200090910605A0910705B0910805E4968CAF0F
:105530009DAFAEAFBFAFE49762961FAF0EAF62975D
:1055400084E892E064969FAF8EAF649787E065969B
:105550008FAF659766968FAD669780788068669600
:105560008FAF6697BE0160597F4FCE01805B9F4F22
:105570000E94A21B8091090590910A05A0910B053C
:10558000B0910C05E4968CAF9DAFAEAFBFAFE49782
:1055900062961FAF0EAF62978CE892E064969FAF61
:1055A0008EAF649729E0E22E6596EFAE659766961A
:1055B0008FAD66978078806866968FAF6697BE01DC
:1055C00060597F4FCE01805B9F4F0E94A21B2DEC44
:1055D0003CEC4CE45EE360910D0570910E0580910A
:1055E0000F05909110050E946F2CE4966CAF7DAF73
:1055F0008EAF9FAFE49762961FAF0EAF629786E9BA
:1056000092E064969FAF8EAF64976596FFAE659704
:1056100066968FAD66978078806866968FAF66973E
:10562000BE0160597F4FCE01805B9F4F0E94A21B3D
:105630002DEC3CEC4CE45EE3609111057091120599
:1056400080911305909114050E946F2CE4966CAF25
:105650007DAF8EAF9FAFE49762961FAF0EAF62979C
:105660008BE992E064969FAF8EAF64976596DFAE4C
:10567000659766968FAD66978078806866968FAFDF
:105680006697BE0160597F4FCE01805B9F4F0E949D
:10569000A21B2DEC3CEC4CE45EE36091150570918F
:1056A000160580911705909118050E946F2CE496BD
:1056B0006CAF7DAF8EAF9FAFE49762961FAF0EAF1A
:1056C000629781EA92E064969FAF8EAF649788E01C
:1056D00065968FAF659766968FAD66978078806880
:1056E00066968FAF6697BE0160597F4FCE01805B93
:1056F0009F4F0E94A21B2DEC3CEC4CE45EE36091BA
:10570000190570911A0580911B0590911C050E9446
:105710006F2CE4966CAF7DAF8EAF9FAFE49762962F
:105720001FAF0EAF62978AEA92E064969FAF8EAF8A
:1057300064976596EFAE659766968FAD66978078AD
:10574000806866968FAF6697BE0160597F4FCE0125
:10575000805B9F4F0E94A21B60911D0570911E05EA
:10576000072E000C880B990B0E94102CE4966CAF4E
:105770007DAF8EAF9FAFE49762961FAF0EAF62977B
:1057800084EB92E064969FAF8EAF649783E065965A
:105790008FAF659766968FAD6697807880686696BE
:1057A0008FAF6697BE0160597F4FCE01805B9F4FE0
:1057B0000E94A21BC8010E94321180E090E0892B58
:1057C00011F40C94C8230E944C06882311F40C9405
:1057D000BD230E9400000C94BD238CE791E09093C0
:1057E00092048093910480913E0390913F038159EC
:1057F000944071F4E091A404F091A504908180910B
:10580000A60480958923808310923F0310923E0363
:1058100008950E944B2C08F481E00895E89409C093
:1058200097FB3EF490958095709561957F4F8F4FD3
:105830009F4F9923A9F0F92F96E9BB279395F695E9
:10584000879577956795B795F111F8CFFAF4BB0F67
:1058500011F460FF1BC06F5F7F4F8F4F9F4F16C0CB
:10586000882311F096E911C0772321F09EE8872F55
:10587000762F05C0662371F096E8862F70E060E011
:105880002AF09A95660F771F881FDAF7880F96958A
:10589000879597F90895990F0008550FAA0BE0E82E
:1058A000FEEF16161706E807F907C0F012161306E2
:1058B000E407F50798F0621B730B840B950B39F422
:1058C0000A2661F0232B242B252B21F408950A2688
:1058D00009F4A140A6958FEF811D811D08950E94B6
:1058E000822C0C94F32C0E94E52C38F00E94EC2CB6
:1058F00020F0952311F00C94DC2C0C94E22C112454
:105900000C94272D0E94042D70F3959FC1F3950FE1
:1059100050E0551F629FF001729FBB27F00DB11D33
:10592000639FAA27F00DB11DAA1F649F6627B00DC3
:10593000A11D661F829F2227B00DA11D621F739FAC
:10594000B00DA11D621F839FA00D611D221F749FBA
:105950003327A00D611D231F849F600D211D822F01
:10596000762F6A2F11249F5750409AF0F1F0882328
:105970004AF0EE0FFF1FBB1F661F771F881F915055
:105980005040A9F79E3F510580F00C94DC2C0C94FC
:10599000272D5F3FE4F3983ED4F38695779567957E
:1059A000B795F795E7959F5FC1F7FE2B880F911D7F
:1059B0009695879597F9089597F99F6780E870E025
:1059C00060E008959FEF80EC089500240A94161675
:1059D000170618060906089500240A9412161306DD
:1059E000140605060895092E0394000C11F488236B
:1059F00052F0BB0F40F4BF2B11F460FF04C06F5F87
:105A00007F4F8F4F9F4F089557FD9058440F551F5C
:105A100059F05F3F71F04795880F97FB991F61F030
:105A20009F3F79F087950895121613061406551FA7
:105A3000F2CF4695F1DF08C0161617061806991F13
:105A4000F1CF86957105610508940895E894BB2708
:105A500066277727CB0197F908950E946F2DA59FA0
:105A6000900DB49F900DA49F800D911D1124089559
:105A70002F923F924F925F926F927F928F929F925E
:105A8000AF92BF92CF92DF92EF92FF920F931F934C
:105A9000CF93DF93CDB7DEB7CA1BDB0B0FB6F894FD
:105AA000DEBF0FBECDBF09942A88398848885F843D
:105AB0006E847D848C849B84AA84B984C884DF80AE
:105AC000EE80FD800C811B81AA81B981CE0FD11D92
:105AD0000FB6F894DEBF0FBECDBFED010895A29FB3
